:100000000C9446000C9450000C9450000C9450003A
:100010000C9450000C9450000C9450000C94500020
:100020000C9450000C9450000C9450000C94500010
:100030000C9450000C9450000C9450000C94500000
:100040000C9450000C9450000C9450000C945000F0
:100050000C9450000C9450000C9450000C945000E0
:100060000C9450000C9450000C9450000C945000D0
:100070000C9450000C9450000C9450000C945000C0
:100080000C9450000C9450000C94500011241FBE8E
:10009000CFEFD0E4DEBFCDBF0E9452000C94B2007F
:1000A0000C9400008FEF8AB91BB880918000826C9D
:1000B00080938000809181008A61809381008FE12C
:1000C0009EE49093870080938600809186009091B3
:1000D00087008C5F984090938900809388002FE37D
:1000E0008DE093E0215080409040E1F700C0000097
:1000F00080918600909187008C5D95409093890057
:10010000809388002FE38DE093E021508040904061
:10011000E1F700C000008091860090918700885E22
:10012000934090938900809388002FE38DE093E0C3
:10013000215080409040E1F700C00000809186008F
:10014000909187008C5D9540909389008093880002
:100150002FE38DE093E0215080409040E1F700C014
:080160000000FFCFF894FFCF6F
:00000001FF
