:100000000C9446000C9450000C9450000C9450003A
:100010000C9450000C9450000C9450000C94500020
:100020000C9450000C9450000C9450000C94500010
:100030000C9450000C9450000C9450000C94500000
:100040000C9450000C9450000C9450000C945000F0
:100050000C9450000C9450000C9450000C945000E0
:100060000C9450000C9450000C9450000C945000D0
:100070000C9450000C9450000C9450000C945000C0
:100080000C9450000C9450000C94500011241FBE8E
:10009000CFEFD0E4DEBFCDBF0E9452000C94B2007F
:1000A0000C9400008FEF84B915B880919000826C99
:1000B00080939000809191008A61809391008FE1FC
:1000C0009EE4909397008093960080919600909183
:1000D00097008C5F984090939900809398002FE34D
:1000E0008DE093E0215080409040E1F700C0000097
:1000F00080919600909197008C5D95409093990027
:10010000809398002FE38DE093E021508040904051
:10011000E1F700C000008091960090919700885E02
:10012000934090939900809398002FE38DE093E0A3
:10013000215080409040E1F700C00000809196007F
:10014000909197008C5D95409093990080939800D2
:100150002FE38DE093E0215080409040E1F700C014
:080160000000FFCFF894FFCF6F
:00000001FF
