:100000000C9446000C9450000C9450000C9450003A
:100010000C9450000C9450000C9450000C94500020
:100020000C9450000C9450000C9450000C94500010
:100030000C9450000C9450000C9450000C94500000
:100040000C9450000C9450000C9450000C945000F0
:100050000C9450000C9450000C9450000C945000E0
:100060000C9450000C9450000C9450000C945000D0
:100070000C9450000C9450000C9450000C945000C0
:100080000C9450000C9450000C94500011241FBE8E
:10009000CFEFD0E4DEBFCDBF0E9452000C94AC0085
:1000A0000C9400008FEF84B915B8E0E9F0E080818E
:1000B000826F8083E1E9F0E080818A618083E6E9F4
:1000C000F0E08FE19EE491838083808191818C5D5B
:1000D0009540A8E9B0E011969C938E932FE38DE0B4
:1000E00093E0215080409040E1F700C00000808103
:1000F00091818C5F984011969C938E932FE38DE0B5
:1001000093E0215080409040E1F700C000008081E2
:100110009181885E9340AAE9B0E011969C938E93FA
:100120002FE38DE093E0215080409040E1F700C044
:100130000000808191818C5D954011969C938E93F7
:100140002FE38DE093E0215080409040E1F700C024
:0C015000000090E080E00895F894FFCFDC
:00000001FF
