:100000000C9446000C9465000C9465000C946500FB
:100010000C9465000C9465000C9465000C946500CC
:100020000C9465000C9465000C9465000C946500BC
:100030000C9465000C9459010C9465000C946500B7
:100040000C9465000C9465000C9465000C9465009C
:100050000C9465000C9465000C9465000C9465008C
:100060000C9465000C9465000C9465000C9465007C
:100070000C9465000C9465000C9465000C9465006C
:100080000C9465000C9465000C94650011241FBE4F
:10009000CFEFD0E4DEBFCDBF13E0A0E0B1E0EEEEE5
:1000A000FAE000E00BBF02C007900D92A638B1073E
:1000B000D9F723E0A6E8B3E001C01D92A83CB2073F
:1000C000E1F70E94F8020C9475050C94000080E49E
:1000D00080937C0087E880937A00089590917C005B
:1000E000987F8770982B90937C0080917A00806431
:1000F00080937A0080917A0086FDFCCF8091780011
:1001000090917900089580E00E946E008F3E22E079
:10011000920728F48E35914020F080E0089581E028
:10012000089582E0089520B12095227082309105D3
:1001300001F134F48130910579F081E090E0089587
:100140008330910589F00497C1F72223B1F310920F
:10015000870384E090E00895222389F381E080936F
:10016000870383E090E008952111F8CF82E090E0CA
:1001700008952111ECCF089582309105E1F083308C
:10018000910509F440C00197A9F580918703882360
:1001900089F10E948202E0918803F0E0EE0FFF1FD8
:1001A000E050FF4F4081518163E080E00E94E50212
:1001B00082E090E00895809187038823C9F08091C0
:1001C0008603882341F30E9482024EE453E063E0F9
:1001D00080E00E94E50288EC90E0EFE1FEE43197D8
:1001E000F1F700C000000197C1F783E090E00895A7
:1001F0000E94820242E453E063E080E00E94E50254
:1002000081E090E00895809186038111DECFC1CF17
:1002100021E030E001C0220F6A95EAF7442311F093
:10022000822B089520958223089521E030E001C0BB
:10023000220F6A95EAF7822308956093080170936C
:10024000090180930A0190930B01609389037093D5
:100250008A0380938B0390938C0308958BE08093A3
:1002600081008DE790E0909389008093880082E080
:1002700080936F0010928500109284008091080195
:1002800090910901A0910A01B0910B01809389031B
:1002900090938A03A0938B03B0938C038FB78068ED
:1002A0008FBF089510928100089581E080938D039F
:1002B00008951F920F920FB60F9211248F939F9360
:1002C000AF93BF938091890390918A03A0918B0390
:1002D000B0918C030197A109B10980938903909390
:1002E0008A03A0938B03B0938C03892B8A2B8B2BCF
:1002F00099F481E080938D03809108019091090128
:10030000A0910A01B0910B018093890390938A0315
:10031000A0938B03B0938C03BF91AF919F918F916A
:100320000F900FBE0F901F9018950F931F93CF93B0
:10033000DF93B62FA72FF82FE92F8901D42FC52FD0
:100340006B2F7A2F8F2F9E2F98014D2F5C2F0E949D
:100350002E04B02FA12FFE016115710581059105B5
:1003600041F4B8018D2F9C2FDF91CF911F910F91F8
:1003700008958B01D82FC92FE3CF1F93CF93DF931D
:10038000182F86E090E00E945004EC01812F90E04D
:100390000E945004998388831A821B821C821D83C9
:1003A000CE01DF91CF911F91089521E0FC0184815E
:1003B000811120E0822F0895FC0181E02481958144
:1003C000291380E00895FC0112821382148208959B
:1003D000FC0194818581981790F4A381808191819B
:1003E000A80FB92FB11D6C9383818F5F65810E9427
:1003F0002204938384818F5F848380E0089581E069
:100400000895CF93DF93EC010E948300C130D105A2
:1004100031F0C230D10539F1C1E0D0E020C0909177
:1004200087039923E1F08823D1F0909186039111FD
:1004300016C0813071F490918803933080F4682F56
:100440008091BE039091BF030E94E801C2E0D0E01A
:1004500006C0823021F4909188039111F0CFCE0133
:10046000DF91CF910895909187039923A9F2882372
:1004700099F2F5CFFC012481222389F0A2818081A9
:100480009181A80FB92FB11D2C911C9282818F5F91
:1004900065810E9422049283848181508483822F0B
:1004A00008950197C9F48091BE039091BF03FC01A8
:1004B0002481222389F021E0209386030E943A02BE
:1004C00090918803813031F49F5F9093880382E09C
:1004D00090E008959150F9CF1092860381E090E06A
:1004E0000895613059F4429898E087FF09C0419A15
:1004F0004098880F409A9150C1F70895429AF4CFDE
:100500004198F6CFCF93DF9361E08CE00E947102B7
:1005100061E080E80E947102C8EFD1E060E080E015
:100520000E9471022197D1F7DF91CF9108954398EE
:1005300082E08A95F1F700C0439A82E08A95F1F74C
:1005400000C061E081E20E94710261E088EC0E94DB
:10055000710261E086E00E94710261E083E10E9425
:10056000710261E080E20E94710261E08CE00E9411
:1005700071020C948202CF93C82F862F61E08064B1
:100580000E94710261E08C2F8068CF910C947102FF
:100590000F931F93CF93DF93805296E0899F800142
:1005A0001124D0E0C0E0FE01E00FF11FE65EFE4F37
:1005B00060E080810E9471022196C630D10599F7D2
:1005C000DF91CF911F910F9108950F931F93CF93B8
:1005D000DF938A010E94BB02E8018991811105C065
:1005E000DF91CF911F910F9108950E94C802F5CF1E
:1005F000CF93DF93CDB7DEB728970FB6F894DEBF61
:100600000FBECDBF11B88FEF82B987B918B80E945D
:1006100067000E9497020E94820284E00E94BD014E
:100620009093BF038093BE0388E0E2E1F1E0DE0136
:10063000119601900D928A95E1F724E6E22EF12CB5
:1006400000E010E052E340E030E020E0652F742F3E
:10065000832F922F9701A8010E942E045E2D4F2D0B
:10066000302F212F611571058105910509F0E1C039
:1006700094E6A92EB12CC12CD12CB701C80195014B
:10068000A6010E942E047501860161157105810580
:10069000910509F0D1C082E3E82EF12C00E010E0D2
:1006A000B501C6019701A8010E942E0457016801F7
:1006B000611571058105910509F0C1C062E370E023
:1006C00080E090E09701A8010E942E0449015A01A0
:1006D00064E670E080E090E09701A8010E942E049B
:1006E0001092AF038092B0039092B103A092B20334
:1006F000B092B3038092B4039092B503A092B60374
:10070000B092B70383E990E09093B9038093B80364
:100710001092A4032093A5033093A6034093A7034C
:100720005093A8032093A9033093AA034093AB03EB
:100730005093AC0381E092E09093AE038093AD03BD
:100740001092990320939A0330939B0340939C0348
:1007500050939D0320939E0330939F034093A003E7
:100760005093A10381E592E09093A3038093A203A9
:1007700010928E0380928F0390929003A092910327
:10078000B09292038092930390929403A092950367
:10079000B09296038CEB90E090939803809397032C
:1007A000B701C8010E941D010E942E016E0189E05F
:1007B000C80ED11CDE0111967D01F7010191119146
:1007C0007F01D80115964D915D916D917C9118979F
:1007D00011968D919D910D90BC91A02D48175907B0
:1007E0006A077B0781F4F80180810184F285E02D9E
:1007F000082E000C990B0995D8018C93F8011582ED
:10080000168217821086F80185819681A781B085AE
:100810000196A11DB11D85839683A783B087EC1433
:10082000FD0459F680918D038823E1F310928D0326
:10083000C1CF7B018C010ACF5B016C011ECF7B0114
:100840008C012ECF991B79E004C0991F961708F0F0
:10085000961B881F7A95C9F780950895A1E21A2EF4
:10086000AA1BBB1BFD010DC0AA1FBB1FEE1FFF1F54
:10087000A217B307E407F50720F0A21BB30BE40BA4
:10088000F50B661F771F881F991F1A9469F76095EB
:100890007095809590959B01AC01BD01CF010895A5
:1008A0000F931F93CF93DF938230910510F482E072
:1008B00090E0E091C603F091C70330E020E0B0E0A3
:1008C000A0E0309799F42115310509F44AC0281B9E
:1008D000390B24303105D8F58A819B81611571056A
:1008E00089F1FB0193838283FE0111C04081518114
:1008F0000281138148175907E0F04817590799F406
:10090000109761F012960C93129713961C933296DF
:10091000CF01DF91CF911F910F9108950093C603EE
:100920001093C703F4CF2115310551F04217530737
:1009300038F0A901DB019A01BD01DF01F801C1CF47
:10094000EF01F9CF9093C7038093C603CDCFFE018B
:10095000E20FF31F81939193225031093983288349
:10096000D7CF2091C4033091C503232B41F42091AC
:100970000E0130910F013093C5032093C4032091E1
:100980000C0130910D012115310541F42DB73EB711
:100990004091100150911101241B350BE091C403CB
:1009A000F091C503E217F307A0F42E1B3F0B2817A5
:1009B000390778F0AC014E5F5F4F2417350748F0D8
:1009C0004E0F5F1F5093C5034093C40381939193CF
:1009D0009FCFF0E0E0E09CCFCF93DF930097E9F06A
:1009E000FC01329713821282A091C603B091C70313
:1009F000ED0130E020E01097A1F420813181820FD9
:100A0000931F2091C4033091C5032817390709F0BB
:100A100061C0F093C503E093C403DF91CF910895C3
:100A2000EA01CE17DF07E8F54A815B819E01411597
:100A30005105B1F7E901FB83EA8349915991C40F4C
:100A4000D51FEC17FD0761F4808191810296840F18
:100A5000951FE90199838883828193819B838A838F
:100A6000F0E0E0E012968D919C9113970097B9F514
:100A70002D913C911197CD010296820F931F2091E9
:100A8000C4033091C5032817390739F6309751F55B
:100A90001092C7031092C603B093C503A093C4037A
:100AA000BCCFD383C28340815181840F951FC81767
:100AB000D90761F44E5F5F4F88819981480F591FB4
:100AC000518340838A819B819383828321153105E1
:100AD00009F0B0CFF093C703E093C6039ECFFD01AA
:0E0AE000DC01C0CF13821282D7CFF894FFCF73
:100AEE0061036A0373037C03010000000000C80366
:100AFE002000AF03A40399038E0300000000000042
:100B0E000000002F000000000700070000147F14F3
:100B1E007F1400242A7F2A120062640813230036F1
:100B2E004955225000000503000000001C22410020
:100B3E00000041221C000014083E08140008083E64
:100B4E000808000000A0600000080808080800005F
:100B5E0060600000002010080402003E5149453E2E
:100B6E000000427F4000004261514946002141454C
:100B7E004B31001814127F10002745454539003CB3
:100B8E004A49493000017109050300364949493681
:100B9E0000064949291E0000363600000000563670
:100BAE000000000814224100001414141414000054
:100BBE004122140800020151090600324959513EE2
:100BCE00007C1211127C007F49494936003E41419A
:100BDE004122007F4141221C007F49494941007F4B
:100BEE0009090901003E4149497A007F0808087F3A
:100BFE000000417F4100002040413F01007F08146A
:100C0E002241007F40404040007F020C027F007F67
:100C1E000408107F003E4141413E007F090909064C
:100C2E00003E4151215E007F09192946004649497F
:100C3E0049310001017F0101003F4040403F001F4C
:100C4E002040201F003F4038403F006314081463CB
:100C5E0000070870080700615149454300007F41B5
:100C6E00410000552A552A55000041417F000004DD
:100C7E000201020400404040404000000102040016
:100C8E00002054545478007F48444438003844447B
:100C9E00442000384444487F003854545418000807
:100CAE007E0901020018A4A4A47C007F0804047825
:100CBE000000447D4000004080847D00007F1028AD
:100CCE0044000000417F4000007C04180478007C42
:100CDE000804047800384444443800FC24242418C2
:100CEE000018242418FC007C0804040800485454FE
:100CFE00542000043F444020003C4040207C001C17
:100D0E002040201C003C4030403C00442810284429
:100D1E00001CA0A0A07C004464544C441414141471
:100D2E00141420204D6F746F72206F666600437529
:100D3E007272656E746C79205368696674696E6739
:100D4E0000202047656172203100202047656172C6
:100D5E002032002020476561722033002020476535
:060D6E0061722034000058
:00000001FF
